{
  "contractName": "Election",
  "abi": [
    {
      "constant": true,
      "inputs": [],
      "name": "totalVotes",
      "outputs": [
        {
          "name": "",
          "type": "uint256"
        }
      ],
      "payable": false,
      "stateMutability": "view",
      "type": "function",
      "signature": "0x0d15fd77"
    },
    {
      "constant": true,
      "inputs": [
        {
          "name": "",
          "type": "address"
        }
      ],
      "name": "balances",
      "outputs": [
        {
          "name": "",
          "type": "uint256"
        }
      ],
      "payable": false,
      "stateMutability": "view",
      "type": "function",
      "signature": "0x27e235e3"
    },
    {
      "constant": true,
      "inputs": [
        {
          "name": "",
          "type": "uint256"
        }
      ],
      "name": "candidates",
      "outputs": [
        {
          "name": "id",
          "type": "uint256"
        },
        {
          "name": "name",
          "type": "string"
        },
        {
          "name": "party",
          "type": "string"
        },
        {
          "name": "voteCount",
          "type": "uint256"
        }
      ],
      "payable": false,
      "stateMutability": "view",
      "type": "function",
      "signature": "0x3477ee2e"
    },
    {
      "constant": true,
      "inputs": [],
      "name": "votingEnded",
      "outputs": [
        {
          "name": "",
          "type": "bool"
        }
      ],
      "payable": false,
      "stateMutability": "view",
      "type": "function",
      "signature": "0x9d5a0529"
    },
    {
      "constant": true,
      "inputs": [
        {
          "name": "",
          "type": "address"
        }
      ],
      "name": "voted",
      "outputs": [
        {
          "name": "",
          "type": "bool"
        }
      ],
      "payable": false,
      "stateMutability": "view",
      "type": "function",
      "signature": "0xaec2ccae"
    },
    {
      "constant": true,
      "inputs": [
        {
          "name": "",
          "type": "uint256"
        }
      ],
      "name": "voters",
      "outputs": [
        {
          "name": "id",
          "type": "uint256"
        },
        {
          "name": "fullname",
          "type": "bytes32"
        },
        {
          "name": "nin",
          "type": "bytes32"
        },
        {
          "name": "addr",
          "type": "bytes32"
        },
        {
          "name": "phoneno",
          "type": "bytes32"
        },
        {
          "name": "candidateIDVote",
          "type": "uint256"
        },
        {
          "name": "hasVoted",
          "type": "bool"
        }
      ],
      "payable": false,
      "stateMutability": "view",
      "type": "function",
      "signature": "0xda58c7d9"
    },
    {
      "constant": true,
      "inputs": [],
      "name": "ballotCreator",
      "outputs": [
        {
          "name": "",
          "type": "address"
        }
      ],
      "payable": false,
      "stateMutability": "view",
      "type": "function",
      "signature": "0xde258fc7"
    },
    {
      "inputs": [],
      "payable": false,
      "stateMutability": "nonpayable",
      "type": "constructor",
      "signature": "constructor"
    },
    {
      "anonymous": false,
      "inputs": [
        {
          "indexed": false,
          "name": "nin",
          "type": "bytes32"
        }
      ],
      "name": "addedVoters",
      "type": "event",
      "signature": "0x7d20cb1ec7a32ab5146a95be71ef240a7e6716431a6a4661d16ebbe1505841a7"
    },
    {
      "anonymous": false,
      "inputs": [
        {
          "indexed": true,
          "name": "_candidateId",
          "type": "uint256"
        }
      ],
      "name": "votedEvent",
      "type": "event",
      "signature": "0xfff3c900d938d21d0990d786e819f29b8d05c1ef587b462b939609625b684b16"
    },
    {
      "anonymous": false,
      "inputs": [
        {
          "indexed": false,
          "name": "sender",
          "type": "address"
        },
        {
          "indexed": false,
          "name": "amount",
          "type": "uint256"
        }
      ],
      "name": "Deposit",
      "type": "event",
      "signature": "0xe1fffcc4923d04b559f4d29a8bfc6cda04eb5b0d3c460751c2402c5c5cc9109c"
    },
    {
      "anonymous": false,
      "inputs": [
        {
          "indexed": false,
          "name": "receiver",
          "type": "address"
        },
        {
          "indexed": false,
          "name": "amount",
          "type": "uint256"
        }
      ],
      "name": "Withdrawal",
      "type": "event",
      "signature": "0x7fcf532c15f0a6db0bd6d0e038bea71d30d808c7d98cb3bf7268a95bf5081b65"
    },
    {
      "anonymous": false,
      "inputs": [
        {
          "indexed": false,
          "name": "from",
          "type": "address"
        },
        {
          "indexed": false,
          "name": "to",
          "type": "address"
        },
        {
          "indexed": false,
          "name": "value",
          "type": "uint256"
        }
      ],
      "name": "Transfer",
      "type": "event",
      "signature": "0xddf252ad1be2c89b69c2b068fc378daa952ba7f163c4a11628f55a4df523b3ef"
    },
    {
      "constant": false,
      "inputs": [
        {
          "name": "fullname",
          "type": "bytes32"
        },
        {
          "name": "phoneno",
          "type": "bytes32"
        },
        {
          "name": "nin",
          "type": "bytes32"
        },
        {
          "name": "addr",
          "type": "bytes32"
        }
      ],
      "name": "addVoter",
      "outputs": [],
      "payable": false,
      "stateMutability": "nonpayable",
      "type": "function",
      "signature": "0x23b635ae"
    },
    {
      "constant": false,
      "inputs": [
        {
          "name": "_candidateId",
          "type": "uint256"
        }
      ],
      "name": "vote",
      "outputs": [],
      "payable": false,
      "stateMutability": "nonpayable",
      "type": "function",
      "signature": "0x0121b93f"
    },
    {
      "constant": false,
      "inputs": [],
      "name": "withdraw",
      "outputs": [],
      "payable": false,
      "stateMutability": "nonpayable",
      "type": "function",
      "signature": "0x3ccfd60b"
    },
    {
      "constant": false,
      "inputs": [
        {
          "name": "amount",
          "type": "uint256"
        }
      ],
      "name": "deposit",
      "outputs": [],
      "payable": true,
      "stateMutability": "payable",
      "type": "function",
      "signature": "0xb6b55f25"
    },
    {
      "constant": true,
      "inputs": [],
      "name": "getBalance",
      "outputs": [
        {
          "name": "",
          "type": "uint256"
        }
      ],
      "payable": false,
      "stateMutability": "view",
      "type": "function",
      "signature": "0x12065fe0"
    },
    {
      "constant": true,
      "inputs": [],
      "name": "getNumOfCandidates",
      "outputs": [
        {
          "name": "",
          "type": "uint256"
        }
      ],
      "payable": false,
      "stateMutability": "view",
      "type": "function",
      "signature": "0xe8685ba1"
    },
    {
      "constant": true,
      "inputs": [
        {
          "name": "account",
          "type": "address"
        }
      ],
      "name": "getAccount",
      "outputs": [
        {
          "name": "",
          "type": "uint256"
        }
      ],
      "payable": false,
      "stateMutability": "view",
      "type": "function",
      "signature": "0xfbcbc0f1"
    }
  ],
  "bytecode": "0x608060405234801561001057600080fd5b50336000806101000a81548173ffffffffffffffffffffffffffffffffffffffff021916908373ffffffffffffffffffffffffffffffffffffffff1602179055506100d860016040805190810160405280600f81526020017f4d7568616d6d65642042756861726900000000000000000000000000000000008152506040805190810160405280601581526020017f416c6c2050726f677265737369766520506172747900000000000000000000008152506000610164640100000000026401000000009004565b61015f60026040805190810160405280600e81526020017f4174696b752041627562616b61720000000000000000000000000000000000008152506040805190810160405280601881526020017f50656f706c65732044656d6f63726174696320506172747900000000000000008152506000610164640100000000026401000000009004565b6102ac565b600660008154809291906001019190505550608060405190810160405280600654815260200184815260200183815260200160008152506001600060065481526020019081526020016000206000820151816000015560208201518160010190805190602001906101d6929190610207565b5060408201518160020190805190602001906101f3929190610207565b506060820151816003015590505050505050565b828054600181600116156101000203166002900490600052602060002090601f016020900481019282601f1061024857805160ff1916838001178555610276565b82800160010185558215610276579182015b8281111561027557825182559160200191906001019061025a565b5b5090506102839190610287565b5090565b6102a991905b808211156102a557600081600090555060010161028d565b5090565b90565b610ae6806102bb6000396000f3fe6080604052600436106100d0576000357c0100000000000000000000000000000000000000000000000000000000900463ffffffff1680630121b93f146100d55780630d15fd771461011057806312065fe01461013b57806323b635ae1461016657806327e235e3146101bf5780633477ee2e146102245780633ccfd60b146103525780639d5a052914610369578063aec2ccae14610398578063b6b55f2514610401578063da58c7d91461042f578063de258fc7146104ac578063e8685ba114610503578063fbcbc0f11461052e575b600080fd5b3480156100e157600080fd5b5061010e600480360360208110156100f857600080fd5b8101908080359060200190929190505050610593565b005b34801561011c57600080fd5b506101256106dd565b6040518082815260200191505060405180910390f35b34801561014757600080fd5b506101506106e3565b6040518082815260200191505060405180910390f35b34801561017257600080fd5b506101bd6004803603608081101561018957600080fd5b8101908080359060200190929190803590602001909291908035906020019092919080359060200190929190505050610702565b005b3480156101cb57600080fd5b5061020e600480360360208110156101e257600080fd5b81019080803573ffffffffffffffffffffffffffffffffffffffff1690602001909291905050506107ff565b6040518082815260200191505060405180910390f35b34801561023057600080fd5b5061025d6004803603602081101561024757600080fd5b8101908080359060200190929190505050610817565b604051808581526020018060200180602001848152602001838103835286818151815260200191508051906020019080838360005b838110156102ad578082015181840152602081019050610292565b50505050905090810190601f1680156102da5780820380516001836020036101000a031916815260200191505b50838103825285818151815260200191508051906020019080838360005b838110156103135780820151818401526020810190506102f8565b50505050905090810190601f1680156103405780820380516001836020036101000a031916815260200191505b50965050505050505060405180910390f35b34801561035e57600080fd5b50610367610977565b005b34801561037557600080fd5b5061037e6109d7565b604051808215151515815260200191505060405180910390f35b3480156103a457600080fd5b506103e7600480360360208110156103bb57600080fd5b81019080803573ffffffffffffffffffffffffffffffffffffffff1690602001909291905050506109ea565b604051808215151515815260200191505060405180910390f35b61042d6004803603602081101561041757600080fd5b8101908080359060200190929190505050610a0a565b005b34801561043b57600080fd5b506104686004803603602081101561045257600080fd5b8101908080359060200190929190505050610a1b565b604051808881526020018781526020018681526020018581526020018481526020018381526020018215151515815260200197505050505050505060405180910390f35b3480156104b857600080fd5b506104c1610a6a565b604051808273ffffffffffffffffffffffffffffffffffffffff1673ffffffffffffffffffffffffffffffffffffffff16815260200191505060405180910390f35b34801561050f57600080fd5b50610518610a8f565b6040518082815260200191505060405180910390f35b34801561053a57600080fd5b5061057d6004803603602081101561055157600080fd5b81019080803573ffffffffffffffffffffffffffffffffffffffff169060200190929190505050610a99565b6040518082815260200191505060405180910390f35b600360003373ffffffffffffffffffffffffffffffffffffffff1673ffffffffffffffffffffffffffffffffffffffff16815260200190815260200160002060009054906101000a900460ff161515156105ec57600080fd5b6000811180156105fe57506006548111155b151561060957600080fd5b600019600160008381526020019081526020016000206003015410151561062f57600080fd5b6001600360003373ffffffffffffffffffffffffffffffffffffffff1673ffffffffffffffffffffffffffffffffffffffff16815260200190815260200160002060006101000a81548160ff0219169083151502179055506001600082815260200190815260200160002060030160008154809291906001019190505550807ffff3c900d938d21d0990d786e819f29b8d05c1ef587b462b939609625b684b1660405160405180910390a250565b60055481565b60003073ffffffffffffffffffffffffffffffffffffffff1631905090565b6008600081548092919060010191905055507f7d20cb1ec7a32ab5146a95be71ef240a7e6716431a6a4661d16ebbe1505841a7826040518082815260200191505060405180910390a160e06040519081016040528060085481526020018581526020018381526020018481526020018281526020016000815260200160001515815250600260006008548152602001908152602001600020600082015181600001556020820151816001015560408201518160020155606082015181600301556080820151816004015560a0820151816005015560c08201518160060160006101000a81548160ff02191690831515021790555090505050505050565b60046020528060005260406000206000915090505481565b6001602052806000526040600020600091509050806000015490806001018054600181600116156101000203166002900480601f0160208091040260200160405190810160405280929190818152602001828054600181600116156101000203166002900480156108c95780601f1061089e576101008083540402835291602001916108c9565b820191906000526020600020905b8154815290600101906020018083116108ac57829003601f168201915b505050505090806002018054600181600116156101000203166002900480601f0160208091040260200160405190810160405280929190818152602001828054600181600116156101000203166002900480156109675780601f1061093c57610100808354040283529160200191610967565b820191906000526020600020905b81548152906001019060200180831161094a57829003601f168201915b5050505050908060030154905084565b3373ffffffffffffffffffffffffffffffffffffffff166108fc3073ffffffffffffffffffffffffffffffffffffffff16319081150290604051600060405180830381858888f193505050501580156109d4573d6000803e3d6000fd5b50565b600060149054906101000a900460ff1681565b60036020528060005260406000206000915054906101000a900460ff1681565b8034141515610a1857600080fd5b50565b60026020528060005260406000206000915090508060000154908060010154908060020154908060030154908060040154908060050154908060060160009054906101000a900460ff16905087565b6000809054906101000a900473ffffffffffffffffffffffffffffffffffffffff1681565b6000600654905090565b60008173ffffffffffffffffffffffffffffffffffffffff1631905091905056fea165627a7a723058204397e371f4c1dbf83b6ebdc470c6516b2b211a2d402eb07355326de9beb615ba0029",
  "source": "//solium-disable linebreak-style\r\npragma solidity ^0.5.0;\r\ncontract Election{\r\n    \r\n    // The address of the account that created this ballot.\r\n     address public ballotCreator;\r\n\r\n    constructor() public { \r\n        ballotCreator = msg.sender;    \r\n        addCandidate(1,\"Muhammed Buhari\",\"All Progressive Party\",0);\r\n        addCandidate(2,\"Atiku Abubakar\",\"Peoples Democratic Party\",0);\r\n       //auctionEnd = now + (durationMins + 1 minutes);\r\n    }\r\n    \r\n    //event AddedVoters(address indexed _sender, uint numVoters,bytes32 fullname,bytes32 nin,bytes32 addr,uint candidateIDVote,bool hasVoted);\r\n    //Candidate[] public candidates;\r\n\r\n    // Is voting finished? The ballot creator determines when to set this flag.\r\n    bool public votingEnded;\r\n\r\n    //event to add voters\r\n    event addedVoters (bytes32 nin);\r\n    // event Token(bytes32 token);\r\n    event votedEvent (uint indexed _candidateId);\r\n    event Deposit(address sender, uint256 amount);\r\n    event Withdrawal (address receiver, uint256 amount);\r\n    event Transfer(address from, address to, uint256 value);\r\n\r\n    //mapping each candidate to their respective id\r\n    mapping(uint => Candidate) public candidates;\r\n    //mapping each voter to the Voter struct\r\n    mapping(uint => Voter) public voters;\r\n    //mapping that connects a voter to an address\r\n    mapping(address => bool) public voted;\r\n    mapping(address => uint256) public balances;\r\n\r\n \r\n// The total number of votes cast so far. Revealed before voting has ended.\r\n    uint256 public totalVotes;\r\n\r\n    uint  candidatesCount;\r\n    bytes32 token;\r\n    uint  numVoters;\r\n    bytes32 voterList;\r\n    //address public OfficialAccount = App.account;\r\n    //uint256 bonus = 1 wei;\r\n    //uint durationMins= 60;    \r\n \r\n    struct Candidate{\r\n        uint id;\r\n        string name;\r\n        string party;\r\n        uint voteCount;\r\n      \r\n    }\r\n\r\n    struct Voter{\r\n        uint id;\r\n        bytes32 fullname; // bytes32 type are basically strings\r\n        bytes32 nin;\r\n        bytes32 addr;\r\n        bytes32 phoneno;\r\n        uint candidateIDVote;\r\n        bool hasVoted;    \r\n        //address myAccount;\r\n    }    \r\n\r\n    function addVoter(bytes32 fullname,bytes32 phoneno, bytes32 nin,bytes32 addr) public {//returns(uint) {\r\n        //if(validVoter(nin) == true) {\r\n        numVoters++;\r\n        emit addedVoters(nin);\r\n        voters[numVoters] = Voter(numVoters,fullname,nin,phoneno, addr,0,false);\r\n    }\r\n\r\n    function addCandidate (uint id, string memory _name, string memory party,uint voteCount) private {\r\n        candidatesCount++;\r\n        candidates[candidatesCount] = Candidate(candidatesCount, _name, party, 0);\r\n    }\r\n\r\n    function vote (uint _candidateId) public {\r\n        //require that they havent voted\r\n        require(!voted[msg.sender]);\r\n        // can only vote during voting period\r\n        // require(!votingEnded);\r\n         // candidate must be part of the ballot\r\n        // require(validCandidate(_candidateId));\r\n\r\n        require(_candidateId > 0 && _candidateId <= candidatesCount);\r\n\r\n        // require(totalVotes < ~uint256(0));\r\n\r\n        require(candidates[_candidateId].voteCount < ~uint256(0));\r\n        voted[msg.sender] = true;\r\n        \r\n        candidates[_candidateId].voteCount++;\r\n\r\n        emit votedEvent(_candidateId);\r\n\r\n    } \r\n    \r\n   \r\n    // function deposit() payable public returns (bool success) {\r\n    //     balances[msg.sender] +=msg.value;\r\n    //     emit Deposit(msg.sender, msg.value);\r\n    //     return true;\r\n    // }\r\n\r\n    // function withdraw(uint value) public  returns(bool success){\r\n    //     require(balances[msg.sender] < value);\r\n    //     balances[msg.sender]-=value;\r\n    //     msg.sender.transfer(value);\r\n    //     emit Withdrawal(msg.sender, value);\r\n    //     return true;\r\n    // }\r\n    function withdraw() public {\r\n        msg.sender.transfer(address(this).balance);\r\n    }\r\n    function deposit(uint256 amount) payable public {\r\n        require(msg.value == amount);\r\n        // nothing else to do!\r\n    }\r\n\r\n    function getBalance() public view returns (uint256) {\r\n        return address(this).balance;\r\n    }\r\n//  function transfer(address payable to, uint256 value) payable public returns (bool) {\r\n//          require (balances[msg.sender] < value) ;\r\n//          balances[msg.sender]-=value;\r\n//          msg.sender.transfer(value);\r\n//        emit Transfer(msg.sender, to, value);\r\n//         return true;\r\n//     }\r\n\r\n    // function geToken() public returns (bytes32) {\r\n    //     emit Token(token);\r\n    //     return token;\r\n    // }\r\n    // function Award(address from) payable public returns (bool){\r\n    //     //require(_to != address(0));\r\n    //     from.transfer(bonus);\r\n    //     return true;\r\n    // }\r\n\r\n    /* function Award(address from, address coinAddress, address to) public returns(bool){\r\n        coinAddress.call(id,from,to,bonus)\r\n        return true;\r\n    }    */ \r\n\r\n    /* function Award() public payable {\r\n        OfficialAccount = msg.sender;\r\n    }\r\n  \r\n    function Award1() public payable {\r\n          require(msg.value >= bonus);\r\n          if (msg.value > bonus) {\r\n               var Bonus = msg.value - bonus;\r\n            msg.sender.transfer(Bonus);\r\n        }\r\n    } */\r\n    \r\n    //  function endVoting() public returns (bool) {\r\n    //      // Only ballot creator can end the vote.\r\n    //      require(msg.sender == ballotCreator);\r\n    //     votingEnded = true;\r\n    //     return true;\r\n    // }\r\n\r\n    //  function totalVotesFor(uint _candidateId) view public returns (uint256) {\r\n    //     require(validCandidate(_candidateId));\r\n    //      // Don't reveal votes until voting has ended\r\n    //      require(votingEnded); \r\n    //     return candidates[_candidateId].voteCount;\r\n    // }\r\n\r\n\r\n     function getNumOfCandidates() public view returns(uint) {\r\n        return candidatesCount;\r\n    }\r\n\r\n    // function validCandidate(uint _candidateId) view public returns (bool) {\r\n    //     for(uint i = 0; i <candidatesCount; i++) {\r\n    //         if (candidates[_candidateId].id == _candidateId) {\r\n    //             return true;\r\n    //         }\r\n    //     }\r\n    //     return false;\r\n    // }\r\n\r\n\r\n    function getAccount(address account)view public returns(uint256){\r\n        return account.balance;}\r\n\r\n//can delete\r\n//     function compare (string memory oldnin, string memory newnin) public pure returns (bool){\r\n      \r\n//        return keccak256(abi.encodePacked(oldnin)) == keccak256(abi.encodePacked(newnin));\r\n//    }\r\n}\r\n",
  "sourcePath": "D:/Desktop/oldlappy/workingCode/newElection/contracts/Election.sol",
  "compiler": {
    "name": "solc",
    "version": "0.5.0+commit.1d4f565a.Emscripten.clang"
  },
  "schemaVersion": "3.0.1",
  "updatedAt": "2019-05-19T07:24:19.152Z",
  "devdoc": {
    "methods": {}
  },
  "userdoc": {
    "methods": {}
  }
}